initiate
------------------------------------------------------
** secret     d48d5bd8e4ec019548e2d9d659a24a20d11e861a499486460b907020fcf4e096
** secretHash     1c43aad028199ba9a06c88cc350ef068f50808c6
lockTime 1509448849
build
refundAddrH 6d724c4854347552327031466a7345334c6f6d6950476d67513969557a41684e344c
hash160(refundAddrH) 61aa0fff7c9ffecd01a2f2d969271378c030aa36
them mxTRJVKSPjjrFeDBkzNZFTy4cur83WQk5R
hash160(them) a22a841f0212b3bb1d51691a3b1a9a9d5dee180d
** contract     63a6141c43aad028199ba9a06c88cc350ef068f50808c68876a914a22a841f0212b3bb1d51691a3b1a9a9d5dee180d67051509448849b17576a91461aa0fff7c9ffecd01a2f2d969271378c030aa366888ac
** feePerKb     0.00376714
** signedTx     01000000019a529f2e22b7dd6aba86d7e864c955197969d5037a6bb47f880e5010897b17b8010000006b483045022100993dd7d10120feee0d5b458d54e25acdd9659883b9a35a54321dcfaf3be9c332022041ddf9e0ac21df94a7aca684f104e044dc85b1e2d7281a7c1cb161450c8aef21012103eb3fce004b800dff453bd32ab80d436c0f3ce89df657722cc127e90cf7fb3c03feffffff0240420f000000000017a91428eb6c2c7f38dedd9761eb9a7c56961ee93dd9d487aeff0f05000000001976a914225c1a683e295aeef9d0b2f05a71fb2e3ad5131e88ac00000000
** rawTx    a7d4e1257c70c981455da456089442852ae68afe09437dc5da784857618e7f12

audit
------------------------------------------------------
contract:      63a6141c43aad028199ba9a06c88cc350ef068f50808c68876a914a22a841f0212b3bb1d51691a3b1a9a9d5dee180d67051509448849b17576a91461aa0fff7c9ffecd01a2f2d969271378c030aa366888ac
--- contractHash160:      28eb6c2c7f38dedd9761eb9a7c56961ee93dd9d4
--- cmd.contract:      63a6141c43aad028199ba9a06c88cc350ef068f50808c68876a914a22a841f0212b3bb1d51691a3b1a9a9d5dee180d67051509448849b17576a91461aa0fff7c9ffecd01a2f2d969271378c030aa366888ac
--- cmd.contractTx.TxOut:      [c420056340 c420056360]
--- sc:      73637269707468617368
--- addrs:      [324d76796233514b74694867776778594c4a696e336951594c4e3373444a33646e6a71]
** addrs[0]	324d76796233514b74694867776778594c4a696e336951594c4e3373444a33646e6a71
** addrs[0].(*btcutil.AddressScriptHash)	324d76796233514b74694867776778594c4a696e336951594c4e3373444a33646e6a71
** addrs[0].(*btcutil.AddressScriptHash).Hash160()[:]	28eb6c2c7f38dedd9761eb9a7c56961ee93dd9d4
** contractHash160	28eb6c2c7f38dedd9761eb9a7c56961ee93dd9d4
** pushes	&{a22a841f0212b3bb1d51691a3b1a9a9d5dee180d 61aa0fff7c9ffecd01a2f2d969271378c030aa36 1c43aad028199ba9a06c88cc350ef068f50808c6 4988440915}
** pushes.RecipientHash160[:]	a22a841f0212b3bb1d51691a3b1a9a9d5dee180d
** recipientAddr	6d764a51684362734832325271333261706a754361737431526d59316b546f384735
Contract address:        2Mvyb3QKtiHgwgxYLJin3iQYLN3sDJ3dnjq
Contract value:          0.01 BTC
Recipient address:       mvJQhCbsH22Rq32apjuCast1RmY1kTo8G5
Author's refund address: mpRMZoyNoFc3sYfZsvVcfnSvR6B4SYuM2W

Secret hash: 1c43aad028199ba9a06c88cc350ef068f50808c6

Locktime: 11977-11-24 20:52:37 +0000 UTC
Locktime reached in 2562047h47m16s
admirsabanovic@Admirs-MacBook-Pro bin $
